{
  "address": "0x4DC0aC3cFB4fd41fb7323a6ef377CF7568D3311a",
  "abi": [
    {
      "inputs": [],
      "stateMutability": "nonpayable",
      "type": "constructor"
    },
    {
      "anonymous": false,
      "inputs": [
        {
          "indexed": true,
          "internalType": "uint256",
          "name": "itemId",
          "type": "uint256"
        },
        {
          "indexed": true,
          "internalType": "address",
          "name": "nftContract",
          "type": "address"
        },
        {
          "indexed": true,
          "internalType": "uint256",
          "name": "tokenId",
          "type": "uint256"
        },
        {
          "indexed": false,
          "internalType": "address",
          "name": "seller",
          "type": "address"
        },
        {
          "indexed": false,
          "internalType": "address",
          "name": "owner",
          "type": "address"
        },
        {
          "indexed": false,
          "internalType": "uint256",
          "name": "price",
          "type": "uint256"
        },
        {
          "indexed": false,
          "internalType": "bool",
          "name": "sold",
          "type": "bool"
        }
      ],
      "name": "MarketItemCreated",
      "type": "event"
    },
    {
      "inputs": [
        {
          "internalType": "address",
          "name": "nftContract",
          "type": "address"
        },
        {
          "internalType": "uint256",
          "name": "tokenId",
          "type": "uint256"
        },
        {
          "internalType": "uint256",
          "name": "price",
          "type": "uint256"
        }
      ],
      "name": "createMarketItem",
      "outputs": [],
      "stateMutability": "payable",
      "type": "function"
    },
    {
      "inputs": [
        {
          "internalType": "address",
          "name": "nftContract",
          "type": "address"
        },
        {
          "internalType": "uint256",
          "name": "itemId",
          "type": "uint256"
        }
      ],
      "name": "createMarketSale",
      "outputs": [],
      "stateMutability": "payable",
      "type": "function"
    },
    {
      "inputs": [],
      "name": "fetchItemCreated",
      "outputs": [
        {
          "components": [
            {
              "internalType": "uint256",
              "name": "itemId",
              "type": "uint256"
            },
            {
              "internalType": "address",
              "name": "nftContract",
              "type": "address"
            },
            {
              "internalType": "uint256",
              "name": "tokenId",
              "type": "uint256"
            },
            {
              "internalType": "address payable",
              "name": "seller",
              "type": "address"
            },
            {
              "internalType": "address payable",
              "name": "owner",
              "type": "address"
            },
            {
              "internalType": "uint256",
              "name": "price",
              "type": "uint256"
            },
            {
              "internalType": "bool",
              "name": "sold",
              "type": "bool"
            }
          ],
          "internalType": "struct NFTMarket.MarketItem[]",
          "name": "",
          "type": "tuple[]"
        }
      ],
      "stateMutability": "view",
      "type": "function"
    },
    {
      "inputs": [],
      "name": "fetchMarketItems",
      "outputs": [
        {
          "components": [
            {
              "internalType": "uint256",
              "name": "itemId",
              "type": "uint256"
            },
            {
              "internalType": "address",
              "name": "nftContract",
              "type": "address"
            },
            {
              "internalType": "uint256",
              "name": "tokenId",
              "type": "uint256"
            },
            {
              "internalType": "address payable",
              "name": "seller",
              "type": "address"
            },
            {
              "internalType": "address payable",
              "name": "owner",
              "type": "address"
            },
            {
              "internalType": "uint256",
              "name": "price",
              "type": "uint256"
            },
            {
              "internalType": "bool",
              "name": "sold",
              "type": "bool"
            }
          ],
          "internalType": "struct NFTMarket.MarketItem[]",
          "name": "",
          "type": "tuple[]"
        }
      ],
      "stateMutability": "view",
      "type": "function"
    },
    {
      "inputs": [],
      "name": "fetchMyNFTs",
      "outputs": [
        {
          "components": [
            {
              "internalType": "uint256",
              "name": "itemId",
              "type": "uint256"
            },
            {
              "internalType": "address",
              "name": "nftContract",
              "type": "address"
            },
            {
              "internalType": "uint256",
              "name": "tokenId",
              "type": "uint256"
            },
            {
              "internalType": "address payable",
              "name": "seller",
              "type": "address"
            },
            {
              "internalType": "address payable",
              "name": "owner",
              "type": "address"
            },
            {
              "internalType": "uint256",
              "name": "price",
              "type": "uint256"
            },
            {
              "internalType": "bool",
              "name": "sold",
              "type": "bool"
            }
          ],
          "internalType": "struct NFTMarket.MarketItem[]",
          "name": "",
          "type": "tuple[]"
        }
      ],
      "stateMutability": "view",
      "type": "function"
    },
    {
      "inputs": [],
      "name": "getListingPrice",
      "outputs": [
        {
          "internalType": "uint256",
          "name": "",
          "type": "uint256"
        }
      ],
      "stateMutability": "view",
      "type": "function"
    }
  ],
  "transactionHash": "0x651988014b2c702579dadb7c556a4538bbc2a868b99bba47f00a6b809aa023e8",
  "args": [],
  "numDeployments": 1,
  "solcInputHash": "6d9ddb7f22ac19d0f2082c0305b411b6",
  "bytecode": "0x60806040526658d15e1762800060045534801561001b57600080fd5b50600160008190555033600360006101000a81548173ffffffffffffffffffffffffffffffffffffffff021916908373ffffffffffffffffffffffffffffffffffffffff160217905550611960806100746000396000f3fe6080604052600436106100555760003560e01c80630f08efe01461005a57806312e8558514610085578063202e3740146100b057806358eb2df5146100db5780636d360339146100f7578063c23b139e14610122575b600080fd5b34801561006657600080fd5b5061006f61013e565b60405161007c91906115a9565b60405180910390f35b34801561009157600080fd5b5061009a61046a565b6040516100a7919061164b565b60405180910390f35b3480156100bc57600080fd5b506100c5610474565b6040516100d291906115a9565b60405180910390f35b6100f560048036038101906100f091906112e5565b61080e565b005b34801561010357600080fd5b5061010c610b72565b60405161011991906115a9565b60405180910390f35b61013c600480360381019061013791906112a9565b610f21565b005b6060600061014c60016111da565b9050600061015a60026111da565b61016460016111da565b61016e9190611706565b90506000808267ffffffffffffffff8111156101b3577f4e487b7100000000000000000000000000000000000000000000000000000000600052604160045260246000fd5b6040519080825280602002602001820160405280156101ec57816020015b6101d96111fe565b8152602001906001900390816101d15790505b50905060005b8481101561045f57600073ffffffffffffffffffffffffffffffffffffffff166005600060018461022391906116b0565b815260200190815260200160002060040160009054906101000a900473ffffffffffffffffffffffffffffffffffffffff1673ffffffffffffffffffffffffffffffffffffffff16141561044c5760006005600060018461028491906116b0565b81526020019081526020016000206000015490506000600560008381526020019081526020016000209050806040518060e0016040529081600082015481526020016001820160009054906101000a900473ffffffffffffffffffffffffffffffffffffffff1673ffffffffffffffffffffffffffffffffffffffff1673ffffffffffffffffffffffffffffffffffffffff168152602001600282015481526020016003820160009054906101000a900473ffffffffffffffffffffffffffffffffffffffff1673ffffffffffffffffffffffffffffffffffffffff1673ffffffffffffffffffffffffffffffffffffffff1681526020016004820160009054906101000a900473ffffffffffffffffffffffffffffffffffffffff1673ffffffffffffffffffffffffffffffffffffffff1673ffffffffffffffffffffffffffffffffffffffff168152602001600582015481526020016006820160009054906101000a900460ff16151515158152505084868151811061042f577f4e487b7100000000000000000000000000000000000000000000000000000000600052603260045260246000fd5b602002602001018190525060018561044791906116b0565b945050505b808061045790611794565b9150506101f2565b508094505050505090565b6000600454905090565b6060600061048260016111da565b905060008060005b8381101561052b573373ffffffffffffffffffffffffffffffffffffffff16600560006001846104ba91906116b0565b815260200190815260200160002060040160009054906101000a900473ffffffffffffffffffffffffffffffffffffffff1673ffffffffffffffffffffffffffffffffffffffff1614156105185760018361051591906116b0565b92505b808061052390611794565b91505061048a565b5060008267ffffffffffffffff81111561056e577f4e487b7100000000000000000000000000000000000000000000000000000000600052604160045260246000fd5b6040519080825280602002602001820160405280156105a757816020015b6105946111fe565b81526020019060019003908161058c5790505b50905060005b84811015610803573373ffffffffffffffffffffffffffffffffffffffff16600560006001846105dd91906116b0565b815260200190815260200160002060040160009054906101000a900473ffffffffffffffffffffffffffffffffffffffff1673ffffffffffffffffffffffffffffffffffffffff1614156107f057600060018261063a91906116b0565b90506000600560008381526020019081526020016000209050806040518060e0016040529081600082015481526020016001820160009054906101000a900473ffffffffffffffffffffffffffffffffffffffff1673ffffffffffffffffffffffffffffffffffffffff1673ffffffffffffffffffffffffffffffffffffffff168152602001600282015481526020016003820160009054906101000a900473ffffffffffffffffffffffffffffffffffffffff1673ffffffffffffffffffffffffffffffffffffffff1673ffffffffffffffffffffffffffffffffffffffff1681526020016004820160009054906101000a900473ffffffffffffffffffffffffffffffffffffffff1673ffffffffffffffffffffffffffffffffffffffff1673ffffffffffffffffffffffffffffffffffffffff168152602001600582015481526020016006820160009054906101000a900460ff1615151515815250508486815181106107d3577f4e487b7100000000000000000000000000000000000000000000000000000000600052603260045260246000fd5b60200260200101819052506001856107eb91906116b0565b945050505b80806107fb90611794565b9150506105ad565b508094505050505090565b60026000541415610854576040517f08c379a000000000000000000000000000000000000000000000000000000000815260040161084b9061160b565b60405180910390fd5b60026000819055506000811161089f576040517f08c379a00000000000000000000000000000000000000000000000000000000081526004016108969061162b565b60405180910390fd5b60045434146108e3576040517f08c379a00000000000000000000000000000000000000000000000000000000081526004016108da906115eb565b60405180910390fd5b6108ed60016111e8565b60006108f960016111da565b90506040518060e001604052808281526020018573ffffffffffffffffffffffffffffffffffffffff1681526020018481526020013373ffffffffffffffffffffffffffffffffffffffff168152602001600073ffffffffffffffffffffffffffffffffffffffff16815260200183815260200160001515815250600560008381526020019081526020016000206000820151816000015560208201518160010160006101000a81548173ffffffffffffffffffffffffffffffffffffffff021916908373ffffffffffffffffffffffffffffffffffffffff1602179055506040820151816002015560608201518160030160006101000a81548173ffffffffffffffffffffffffffffffffffffffff021916908373ffffffffffffffffffffffffffffffffffffffff16021790555060808201518160040160006101000a81548173ffffffffffffffffffffffffffffffffffffffff021916908373ffffffffffffffffffffffffffffffffffffffff16021790555060a0820151816005015560c08201518160060160006101000a81548160ff0219169083151502179055509050508373ffffffffffffffffffffffffffffffffffffffff166323b872dd3330866040518463ffffffff1660e01b8152600401610ada9392919061152d565b600060405180830381600087803b158015610af457600080fd5b505af1158015610b08573d6000803e3d6000fd5b50505050828473ffffffffffffffffffffffffffffffffffffffff16827f045dfa01dcba2b36aba1d3dc4a874f4b0c5d2fbeb8d2c4b34a7d88c8d8f929d1336000876000604051610b5c9493929190611564565b60405180910390a4506001600081905550505050565b6060600080610b8160016111da565b90506000805b82811015610c28573373ffffffffffffffffffffffffffffffffffffffff1660056000600184610bb791906116b0565b815260200190815260200160002060030160009054906101000a900473ffffffffffffffffffffffffffffffffffffffff1673ffffffffffffffffffffffffffffffffffffffff161415610c1557600184610c1291906116b0565b93505b8080610c2090611794565b915050610b87565b5060008367ffffffffffffffff811115610c6b577f4e487b7100000000000000000000000000000000000000000000000000000000600052604160045260246000fd5b604051908082528060200260200182016040528015610ca457816020015b610c916111fe565b815260200190600190039081610c895790505b50905060005b83811015610f16573373ffffffffffffffffffffffffffffffffffffffff1660056000600184610cda91906116b0565b815260200190815260200160002060030160009054906101000a900473ffffffffffffffffffffffffffffffffffffffff1673ffffffffffffffffffffffffffffffffffffffff161415610f0357600060056000600184610d3b91906116b0565b81526020019081526020016000206000015490506000600560008381526020019081526020016000209050806040518060e0016040529081600082015481526020016001820160009054906101000a900473ffffffffffffffffffffffffffffffffffffffff1673ffffffffffffffffffffffffffffffffffffffff1673ffffffffffffffffffffffffffffffffffffffff168152602001600282015481526020016003820160009054906101000a900473ffffffffffffffffffffffffffffffffffffffff1673ffffffffffffffffffffffffffffffffffffffff1673ffffffffffffffffffffffffffffffffffffffff1681526020016004820160009054906101000a900473ffffffffffffffffffffffffffffffffffffffff1673ffffffffffffffffffffffffffffffffffffffff1673ffffffffffffffffffffffffffffffffffffffff168152602001600582015481526020016006820160009054906101000a900460ff161515151581525050848681518110610ee6577f4e487b7100000000000000000000000000000000000000000000000000000000600052603260045260246000fd5b6020026020010181905250600185610efe91906116b0565b945050505b8080610f0e90611794565b915050610caa565b508094505050505090565b60026000541415610f67576040517f08c379a0000000000000000000000000000000000000000000000000000000008152600401610f5e9061160b565b60405180910390fd5b6002600081905550600060056000838152602001908152602001600020600501549050600060056000848152602001908152602001600020600201549050813414610fe7576040517f08c379a0000000000000000000000000000000000000000000000000000000008152600401610fde906115cb565b60405180910390fd5b6005600084815260200190815260200160002060030160009054906101000a900473ffffffffffffffffffffffffffffffffffffffff1673ffffffffffffffffffffffffffffffffffffffff166108fc349081150290604051600060405180830381858888f19350505050158015611063573d6000803e3d6000fd5b508373ffffffffffffffffffffffffffffffffffffffff166323b872dd3033846040518463ffffffff1660e01b81526004016110a19392919061152d565b600060405180830381600087803b1580156110bb57600080fd5b505af11580156110cf573d6000803e3d6000fd5b50505050336005600085815260200190815260200160002060040160006101000a81548173ffffffffffffffffffffffffffffffffffffffff021916908373ffffffffffffffffffffffffffffffffffffffff16021790555060016005600085815260200190815260200160002060060160006101000a81548160ff02191690831515021790555061116160026111e8565b600360009054906101000a900473ffffffffffffffffffffffffffffffffffffffff1673ffffffffffffffffffffffffffffffffffffffff166108fc6004549081150290604051600060405180830381858888f193505050501580156111cb573d6000803e3d6000fd5b50505060016000819055505050565b600081600001549050919050565b6001816000016000828254019250508190555050565b6040518060e0016040528060008152602001600073ffffffffffffffffffffffffffffffffffffffff16815260200160008152602001600073ffffffffffffffffffffffffffffffffffffffff168152602001600073ffffffffffffffffffffffffffffffffffffffff168152602001600081526020016000151581525090565b60008135905061128e816118fc565b92915050565b6000813590506112a381611913565b92915050565b600080604083850312156112bc57600080fd5b60006112ca8582860161127f565b92505060206112db85828601611294565b9150509250929050565b6000806000606084860312156112fa57600080fd5b60006113088682870161127f565b935050602061131986828701611294565b925050604061132a86828701611294565b9150509250925092565b60006113408383611481565b60e08301905092915050565b6113558161174c565b82525050565b6113648161173a565b82525050565b6113738161173a565b82525050565b600061138482611676565b61138e818561168e565b935061139983611666565b8060005b838110156113ca5781516113b18882611334565b97506113bc83611681565b92505060018101905061139d565b5085935050505092915050565b6113e08161175e565b82525050565b6113ef8161175e565b82525050565b600061140260408361169f565b915061140d8261180c565b604082019050919050565b600061142560248361169f565b91506114308261185b565b604082019050919050565b6000611448601f8361169f565b9150611453826118aa565b602082019050919050565b600061146b601c8361169f565b9150611476826118d3565b602082019050919050565b60e082016000820151611497600085018261150f565b5060208201516114aa602085018261135b565b5060408201516114bd604085018261150f565b5060608201516114d0606085018261134c565b5060808201516114e3608085018261134c565b5060a08201516114f660a085018261150f565b5060c082015161150960c08501826113d7565b50505050565b6115188161178a565b82525050565b6115278161178a565b82525050565b6000606082019050611542600083018661136a565b61154f602083018561136a565b61155c604083018461151e565b949350505050565b6000608082019050611579600083018761136a565b611586602083018661136a565b611593604083018561151e565b6115a060608301846113e6565b95945050505050565b600060208201905081810360008301526115c38184611379565b905092915050565b600060208201905081810360008301526115e4816113f5565b9050919050565b6000602082019050818103600083015261160481611418565b9050919050565b600060208201905081810360008301526116248161143b565b9050919050565b600060208201905081810360008301526116448161145e565b9050919050565b6000602082019050611660600083018461151e565b92915050565b6000819050602082019050919050565b600081519050919050565b6000602082019050919050565b600082825260208201905092915050565b600082825260208201905092915050565b60006116bb8261178a565b91506116c68361178a565b9250827fffffffffffffffffffffffffffffffffffffffffffffffffffffffffffffffff038211156116fb576116fa6117dd565b5b828201905092915050565b60006117118261178a565b915061171c8361178a565b92508282101561172f5761172e6117dd565b5b828203905092915050565b60006117458261176a565b9050919050565b60006117578261176a565b9050919050565b60008115159050919050565b600073ffffffffffffffffffffffffffffffffffffffff82169050919050565b6000819050919050565b600061179f8261178a565b91507fffffffffffffffffffffffffffffffffffffffffffffffffffffffffffffffff8214156117d2576117d16117dd565b5b600182019050919050565b7f4e487b7100000000000000000000000000000000000000000000000000000000600052601160045260246000fd5b7f506c65617365207375626d6974207468652061736b696e67207072696365206960008201527f6e206f7264657220746f20636f6d706c65746520746865207075726368617365602082015250565b7f5072696365206d75737420626520657175616c20746f206c697374696e67207060008201527f7269636500000000000000000000000000000000000000000000000000000000602082015250565b7f5265656e7472616e637947756172643a207265656e7472616e742063616c6c00600082015250565b7f5072696365206d757374206265206174206c6561737420312077656900000000600082015250565b6119058161173a565b811461191057600080fd5b50565b61191c8161178a565b811461192757600080fd5b5056fea264697066735822122085df75ac0c6423515b73669e5f34b3998da279b327189c56edf91ba2b90e706464736f6c63430008040033",
  "devdoc": {
    "kind": "dev",
    "methods": {},
    "version": 1
  },
  "userdoc": {
    "kind": "user",
    "methods": {},
    "version": 1
  },
  "storageLayout": {
    "storage": [
      {
        "astId": 10,
        "contract": "contracts/NFTMarket.sol:NFTMarket",
        "label": "_status",
        "offset": 0,
        "slot": "0",
        "type": "t_uint256"
      },
      {
        "astId": 1906,
        "contract": "contracts/NFTMarket.sol:NFTMarket",
        "label": "_itemIds",
        "offset": 0,
        "slot": "1",
        "type": "t_struct(Counter)1517_storage"
      },
      {
        "astId": 1909,
        "contract": "contracts/NFTMarket.sol:NFTMarket",
        "label": "_itemsSold",
        "offset": 0,
        "slot": "2",
        "type": "t_struct(Counter)1517_storage"
      },
      {
        "astId": 1911,
        "contract": "contracts/NFTMarket.sol:NFTMarket",
        "label": "owner",
        "offset": 0,
        "slot": "3",
        "type": "t_address_payable"
      },
      {
        "astId": 1914,
        "contract": "contracts/NFTMarket.sol:NFTMarket",
        "label": "listingPrice",
        "offset": 0,
        "slot": "4",
        "type": "t_uint256"
      },
      {
        "astId": 1946,
        "contract": "contracts/NFTMarket.sol:NFTMarket",
        "label": "idToMarketItem",
        "offset": 0,
        "slot": "5",
        "type": "t_mapping(t_uint256,t_struct(MarketItem)1941_storage)"
      }
    ],
    "types": {
      "t_address": {
        "encoding": "inplace",
        "label": "address",
        "numberOfBytes": "20"
      },
      "t_address_payable": {
        "encoding": "inplace",
        "label": "address payable",
        "numberOfBytes": "20"
      },
      "t_bool": {
        "encoding": "inplace",
        "label": "bool",
        "numberOfBytes": "1"
      },
      "t_mapping(t_uint256,t_struct(MarketItem)1941_storage)": {
        "encoding": "mapping",
        "key": "t_uint256",
        "label": "mapping(uint256 => struct NFTMarket.MarketItem)",
        "numberOfBytes": "32",
        "value": "t_struct(MarketItem)1941_storage"
      },
      "t_struct(Counter)1517_storage": {
        "encoding": "inplace",
        "label": "struct Counters.Counter",
        "members": [
          {
            "astId": 1516,
            "contract": "contracts/NFTMarket.sol:NFTMarket",
            "label": "_value",
            "offset": 0,
            "slot": "0",
            "type": "t_uint256"
          }
        ],
        "numberOfBytes": "32"
      },
      "t_struct(MarketItem)1941_storage": {
        "encoding": "inplace",
        "label": "struct NFTMarket.MarketItem",
        "members": [
          {
            "astId": 1928,
            "contract": "contracts/NFTMarket.sol:NFTMarket",
            "label": "itemId",
            "offset": 0,
            "slot": "0",
            "type": "t_uint256"
          },
          {
            "astId": 1930,
            "contract": "contracts/NFTMarket.sol:NFTMarket",
            "label": "nftContract",
            "offset": 0,
            "slot": "1",
            "type": "t_address"
          },
          {
            "astId": 1932,
            "contract": "contracts/NFTMarket.sol:NFTMarket",
            "label": "tokenId",
            "offset": 0,
            "slot": "2",
            "type": "t_uint256"
          },
          {
            "astId": 1934,
            "contract": "contracts/NFTMarket.sol:NFTMarket",
            "label": "seller",
            "offset": 0,
            "slot": "3",
            "type": "t_address_payable"
          },
          {
            "astId": 1936,
            "contract": "contracts/NFTMarket.sol:NFTMarket",
            "label": "owner",
            "offset": 0,
            "slot": "4",
            "type": "t_address_payable"
          },
          {
            "astId": 1938,
            "contract": "contracts/NFTMarket.sol:NFTMarket",
            "label": "price",
            "offset": 0,
            "slot": "5",
            "type": "t_uint256"
          },
          {
            "astId": 1940,
            "contract": "contracts/NFTMarket.sol:NFTMarket",
            "label": "sold",
            "offset": 0,
            "slot": "6",
            "type": "t_bool"
          }
        ],
        "numberOfBytes": "224"
      },
      "t_uint256": {
        "encoding": "inplace",
        "label": "uint256",
        "numberOfBytes": "32"
      }
    }
  }
}